:100000000C9466030C9485030C9485030C9485036F
:100010000C9485030C9485030C9485030C94850340
:100020000C9485030C9485030C9485030C94850330
:100030000C9485030C9485030C9485030C94850320
:100040000C9485030C9485030C9485030C94850310
:100050000C9485030C9485030C9485030C94850300
:100060000C9485030C9485030C9485030C948503F0
:100070000C9485030C9485030C9485030C948503E0
:100080000C9485030C9485030C9485031201803233
:100090001180FF3A81050AB1830006030A36010880
:1000A000B6021502B40100C08202700AC10105C285
:1000B000020102C5823C380AFC021115E010091643
:1000C0000920211B131917151E2B0405020EE190A0
:1000D0000B14081E221D181E1B1A242B0606020FC5
:1000E0000A2A04000200812B040002008113800A06
:1000F0002980FF0F0180961180FFB103012C2DB2E2
:1001000003012C2DB306012C2D012C2DB40107C0A9
:1001100003A20284C101C5C2020A00C3028A2AC422
:10012000028AEEC5010E20003601C83A0105022AF6
:1001300004000200812B04000100A0022A04000038
:10014000007F2B040000009F022A040000007F2B88
:10015000040000007F04E010021C07123732292D32
:1001600029252B3900010310E110031D07062E2C51
:10017000292D2E2E373F0000021013800A2980649B
:100180003E5149453E00427F40007249494946215F
:1001900041494D331814127F1027454545393C4AD3
:1001A00049493141211109073649494936464949EA
:1001B000291E7C1211127C7F494949363E4141413A
:1001C000227F4141413E7F494949417F0909090157
:1001D00000000000003E5B4F5B3E3E6B4F6B3E1CE1
:1001E0003E7C3E1C183C7E3C181C577D571C1C5EF8
:1001F0007F5E1C00183C1800FFE7C3E7FF001824CF
:100200001800FFE7DBE7FF30483A060E2629792978
:1002100026407F050507407F05253F5A3CE73C5AAD
:100220007F3E1C1C08081C1C3E7F14227F22145F8A
:100230005F005F5F06097F017F006689956A6060E5
:1002400060606094A2FFA29408047E040810207EDF
:10025000201008082A1C08081C2A08081E10101064
:10026000100C1E0C1E0C30383E3830060E3E0E06AA
:10027000000000000000005F0000000700070014FD
:100280007F147F14242A7F2A1223130864623649BC
:100290005620500008070300001C224100004122A4
:1002A0001C002A1C7F1C2A08083E080800807030A9
:1002B0000008080808080000606000201008040218
:1002C0003E5149453E00427F40007249494946211E
:1002D00041494D331814127F1027454545393C4A92
:1002E00049493141211109073649494936464949A9
:1002F000291E0000140000004034000000081422F1
:10030000411414141414004122140802015909065E
:100310003E415D594E7C1211127C7F494949363E5F
:10032000414141227F4141413E7F494949417F0945
:100330000909013E414151737F0808087F00417F50
:1003400041002040413F017F081422417F4040404E
:10035000407F021C027F7F0408107F3E4141413EE6
:100360007F090909063E4151215E7F091929462668
:100370004949493203017F01033F4040403F1F206C
:1003800040201F3F4038403F631408146303047843
:1003900004036159494D43007F4141410204081063
:1003A00020004141417F040201020440404040409E
:1003B000000307080020545478407F28444438380C
:1003C00044444428384444287F385454541800087E
:1003D0007E090218A4A49C787F0804047800447D58
:1003E00040002040403D007F1028440000417F40F5
:1003F000007C047804787C08040478384444443849
:10040000FC1824241818242418FC7C080404084828
:100410005454542404043F44243C4040207C1C2079
:1004200040201C3C4030403C44281028444C9090D4
:10043000907C4464544C440008364100000077002E
:1004400000004136080002010204023C2623263C3B
:100450001EA1A161123A4040207A385454555921C6
:1004600055557941215454784121555478402054B0
:100470005579400C1E5272123955555559395454FC
:10048000545939555454580000457C410002457D6B
:10049000420001457C40F0292429F0F0282528F06D
:1004A0007C545545002054547C547C0A097F4932C1
:1004B000494949323248484832324A4848303A413C
:1004C00041217A3A42402078009DA0A07D394444E1
:1004D00044393D4040403D3C24FF2424487E49436C
:1004E000662B2FFC2F2BFF0929F620C0887E0903DD
:1004F00020545479410000447D413048484A323804
:100500004040227A007A0A0A727D0D19317D26292F
:10051000292F28262929292630484D402038080827
:10052000080808080808382F10C8ACBA2F1028345B
:10053000FA00007B000008142A142222142A14084E
:10054000AA005500AAAA55AA55AA000000FF00104B
:100550001010FF00141414FF001010FF00FF101003
:10056000F010F0141414FC001414F700FF0000FF46
:1005700000FF1414F404FC141417101F10101F10A3
:100580001F1414141F00101010F0000000001F10A2
:100590001010101F10101010F010000000FF1010AD
:1005A00010101010101010FF10000000FF140000B9
:1005B000FF00FF00001F10170000FC04F4141417C4
:1005C00010171414F404F40000FF00F714141414AA
:1005D000141414F700F7141414171410101F101F1C
:1005E000141414F4141010F010F000001F101F0069
:1005F00000001F14000000FC140000F010F01010A8
:10060000FF10FF141414FF141010101F000000003E
:10061000F010FFFFFFFFFFF0F0F0F0F0FFFFFF0032
:1006200000000000FFFF0F0F0F0F0F384444384445
:100630007C2A2A3E147E02020606027E027E0263A5
:10064000554941633844443C04407E201E20060244
:100650007E020299A5E7A5991C2A492A1C4C720121
:10066000724C304A4D4D303048784830BC625A4662
:100670003D3E494949007E0101017E2A2A2A2A2A53
:1006800044445F444440514A444040444A5140003D
:1006900000FF0103E080FF000008086B6B083612C2
:1006A000362436060F090F06000018180000001047
:1006B00010003040FF0101001F01011E00191D172D
:1006C00012003C3C3C3C00000000000011241FBE16
:1006D000CFEFD0E1DEBFCDBF11E0A0E0B1E0ECEEA6
:1006E000F2E400E00BBF02C007900D92A03AB10700
:1006F000D9F721E0A0EAB1E001C01D92AE3CB207FB
:10070000E1F70E94E0030C9474210C940000CF9355
:10071000DF9300D000D0CDB7DEB79A8389836B8397
:100720004C8389819A812FEFFC01208389819A81F2
:10073000FC0190818B81292F282389819A81FC01DA
:10074000208389819A81FC0190818C81292F282323
:1007500089819A81FC01208300000F900F900F90F7
:100760000F90DF91CF910895CF93DF9300D000D009
:10077000CDB7DEB79A8389836B834C8389819A8155
:10078000FC01108289819A81FC0190818B81292F43
:10079000282B89819A81FC01208389819A81FC011F
:1007A00090818C81292F282B89819A81FC012083BB
:1007B00000000F900F900F900F90DF91CF91089550
:1007C000CF93DF93CDB7DEB78AE390E02FEFFC0144
:1007D000208384E390E02FEFFC01208384E690E007
:1007E0002FEFFC01208387E390E02FEFFC012083B3
:1007F00081E690E02FEFFC01208382E290E0FC0193
:1008000010828DE290E0FC0120818DE290E0206575
:10081000FC0120832EE230E08EE290E0F90120819D
:10082000FC01208383E00E94171080E090E00E948A
:10083000A9128FEF90E00E941E04FBCFCF92DF92AF
:10084000EF92FF920F931F93CF93DF93CDB7DEB755
:1008500060970FB6F894DEBF0FBECDBF888B1982AC
:100860009CC020910501909103018091AA010F2E57
:10087000F0E4CF2EF4EDDF2EF02D0F2EFEEBEF2E59
:10088000F3E0FF2EF02D022F292F40E0682F898101
:100890000E94600880910801909109014091020135
:1008A000309107018C01298160E0832F0E94E408C8
:1008B00080E090E0A8ECB2E48A839B83AC83BD83A4
:1008C00020E030E04AE755E46A817B818C819D819C
:1008D0000E94DF20DC01CB018E839F83A887B9872C
:1008E00020E030E040E85FE36E817F818885998574
:1008F0000E941C2088232CF481E090E09B878A874B
:100900003FC020E03FEF4FE757E46E817F8188854D
:1009100099850E94DA2018164CF520E030E040E27C
:1009200051E46A817B818C819D810E94DF20DC0102
:10093000CB01BC01CD010E942120DC01CB019B87B2
:100940008A870FC080E991E09D878C878C859D8583
:100950000197F1F79D878C878A859B8501979B87F7
:100960008A878A859B85892B69F714C06E817F8170
:10097000888599850E942120DC01CB019B878A878D
:100980008A859B859F878E878E859F850197F1F746
:100990009F878E8789818F5F898389818F3F09F047
:1009A00060CF000060960FB6F894DEBF0FBECDBFDB
:1009B000DF91CF911F910F91FF90EF90DF90CF903B
:1009C0000895CF93DF93CDB7DEB72E970FB6F89487
:1009D000DEBF0FBECDBF8091AF01882371F0809143
:1009E00006019091AF01292F281B822F8093AF0120
:1009F0008091B00181508093B00180E090E0A0E24E
:100A0000B1E489839A83AB83BC8320E030E04AE77A
:100A100055E469817A818B819C810E94DF20DC0111
:100A2000CB018D839E83AF83B88720E030E040E820
:100A30005FE36D817E818F8198850E941C208823D1
:100A40002CF481E090E09A8789873FC020E03FEF57
:100A50004FE757E46D817E818F8198850E94DA206F
:100A600018164CF520E030E040E251E469817A81CB
:100A70008B819C810E94DF20DC01CB01BC01CD0178
:100A80000E942120DC01CB019A8789870FC080E971
:100A900091E09C878B878B859C850197F1F79C87DC
:100AA0008B8789859A8501979A87898789859A8511
:100AB000892B69F714C06D817E818F8198850E9492
:100AC0002120DC01CB019A87898789859A859E87B9
:100AD0008D878D859E850197F1F79E878D87000014
:100AE0002E960FB6F894DEBF0FBECDBFDF91CF912B
:100AF0000895CF93DF93CDB7DEB72E970FB6F89456
:100B0000DEBF0FBECDBF8091B0018A3060F49091FE
:100B100006018091AF01890F8093AF018091B001F0
:100B20008F5F8093B00180E090E0A0E2B1E4898320
:100B30009A83AB83BC8320E030E04AE755E46981C7
:100B40007A818B819C810E94DF20DC01CB018D8327
:100B50009E83AF83B88720E030E040E85FE36D819B
:100B60007E818F8198850E941C2088232CF481E04F
:100B700090E09A8789873FC020E03FEF4FE757E436
:100B80006D817E818F8198850E94DA2018164CF540
:100B900020E030E040E251E469817A818B819C81E0
:100BA0000E94DF20DC01CB01BC01CD010E9421208D
:100BB000DC01CB019A8789870FC080E991E09C878F
:100BC0008B878B859C850197F1F79C878B8789851F
:100BD0009A8501979A87898789859A85892B69F7EC
:100BE00014C06D817E818F8198850E942120DC0157
:100BF000CB019A87898789859A859E878D878D8580
:100C00009E850197F1F79E878D8700002E960FB67F
:100C1000F894DEBF0FBECDBFDF91CF910895CF9383
:100C2000DF93CDB7DEB72E970FB6F894DEBF0FBEB9
:100C3000CDBF8091AE01882371F080910401909125
:100C4000AE01292F281B822F8093AE0180910B01CA
:100C50008F5F80930B0180E090E0A0E2B1E4898394
:100C60009A83AB83BC8320E030E04AE755E4698196
:100C70007A818B819C810E94DF20DC01CB018D83F6
:100C80009E83AF83B88720E030E040E85FE36D816A
:100C90007E818F8198850E941C2088232CF481E01E
:100CA00090E09A8789873FC020E03FEF4FE757E405
:100CB0006D817E818F8198850E94DA2018164CF50F
:100CC00020E030E040E251E469817A818B819C81AF
:100CD0000E94DF20DC01CB01BC01CD010E9421205C
:100CE000DC01CB019A8789870FC080E991E09C875E
:100CF0008B878B859C850197F1F79C878B878985EE
:100D00009A8501979A87898789859A85892B69F7BA
:100D100014C06D817E818F8198850E942120DC0125
:100D2000CB019A87898789859A859E878D878D854E
:100D30009E850197F1F79E878D8700002E960FB64E
:100D4000F894DEBF0FBECDBFDF91CF910895CF9352
:100D5000DF93CDB7DEB72E970FB6F894DEBF0FBE88
:100D6000CDBF8091AE01882384F080910B01883043
:100D700060F4909104018091AE01890F8093AE01DF
:100D800080910B01815080930B0180E090E0A0E204
:100D9000B1E489839A83AB83BC8320E030E04AE7E7
:100DA00055E469817A818B819C810E94DF20DC017E
:100DB000CB018D839E83AF83B88720E030E040E88D
:100DC0005FE36D817E818F8198850E941C2088233E
:100DD0002CF481E090E09A8789873FC020E03FEFC4
:100DE0004FE757E46D817E818F8198850E94DA20DC
:100DF00018164CF520E030E040E251E469817A8138
:100E00008B819C810E94DF20DC01CB01BC01CD01E4
:100E10000E942120DC01CB019A8789870FC080E9DD
:100E200091E09C878B878B859C850197F1F79C8748
:100E30008B8789859A8501979A87898789859A857D
:100E4000892B69F714C06D817E818F8198850E94FE
:100E50002120DC01CB019A87898789859A859E8725
:100E60008D878D859E850197F1F79E878D87000080
:100E70002E960FB6F894DEBF0FBECDBFDF91CF9197
:100E80000895CF93DF93CDB7DEB78091B00188236B
:100E900089F480910B01282F30E081E090E002C0BE
:100EA000880F991F2A95E2F7982F80910C018927C6
:100EB00080930C018091B001813089F480910B0105
:100EC000282F30E081E090E002C0880F991F2A951A
:100ED000E2F7982F80910D01892780930D01809171
:100EE000B001823089F480910B01282F30E081E03D
:100EF00090E002C0880F991F2A95E2F7982F809101
:100F00000E01892780930E010E94AA0C0000DF9138
:100F1000CF910895CF93DF93CDB7DEB781E290E014
:100F2000FC01808180930E018091B001882389F4B7
:100F300080910B01282F30E081E090E002C0880F03
:100F4000991F2A95E2F7809590910C01892380934F
:100F50000C018091B001813089F480910B01282F20
:100F600030E081E090E002C0880F991F2A95E2F7F7
:100F7000809590910D01892380930D018091B0019E
:100F8000823089F480910B01282F30E081E090E0DD
:100F900002C0880F991F2A95E2F7809590910E0163
:100FA000892380930E010E94AA0C0000DF91CF914B
:100FB0000895CF93DF93CDB7DEB78091B00188233A
:100FC00019F48FEF80930C018091B001813019F4F6
:100FD0008FEF80930D018091B001823019F48FEF73
:100FE00080930E010E94AA0C0000DF91CF9108951A
:100FF000CF93DF93CDB7DEB78091B001882321F482
:1010000080910C0110920C018091B001813021F48B
:1010100080910D0110920D018091B001823021F478
:1010200080910E0110920E010E94AA0C0000DF9127
:10103000CF9108950F931F93CF93DF9300D000D0EB
:1010400000D0CDB7DEB789836A834B832C831E83A0
:101050000D838C81282F30E08B81482F50E08A81CE
:10106000682F70E08981882F90E000E212E20E94F0
:1010700079138C81882F90E09C01215031098B815C
:10108000882F90E0AC01415051098A81882F90E06F
:10109000BC016F5F7F4F8981882F90E00196ED81C1
:1010A000FE818F010E94C312000026960FB6F894AD
:1010B000DEBF0FBECDBFDF91CF911F910F9108957D
:1010C000CF92DF92EF92FF920F931F93CF93DF9314
:1010D000CDB7DEB72E970FB6F894DEBF0FBECDBFEB
:1010E0008E836F83488729870A87FC86EB86DE8696
:1010F000CD8688E08A8319829F818985890F8B83B9
:1011000098858A85890F8C838B819A81692F0E94AB
:10111000D91F8D83198243C08E81882F90E0298149
:10112000222F30E047E050E0BA01621B730B9B01B5
:1011300002C0959587952A95E2F781709927892BAA
:10114000A9F089859A81692F0E94D91F382F99812A
:101150008D81989F902D11248F81890F00EE1EE0C4
:101160002A85432F68850E941A0816C089859A81AE
:10117000692F0E94D91F482F99818D81989F902DAA
:1011800011248F81392F380F8D859E858C012A85FA
:101190006885832F0E941A0889818F5F89839981CE
:1011A0008A81981708F4B8CF00002E960FB6F894ED
:1011B000DEBF0FBECDBFDF91CF911F910F91FF908A
:1011C000EF90DF90CF900895EF92FF920F931F93CF
:1011D000CF93DF93CDB7DEB72B970FB6F894DEBF72
:1011E0000FBECDBF8E836F83488729871B870A87F1
:1011F00019829885892F880F890F880F8B838B819F
:10120000880F8C838B81882F90E09C012F5F3F4F4C
:101210008C81882F90E0AC014F5F5F4F8F81682FEA
:1012200070E08E81882F90E000E010E00E94C312F1
:1012300081E08A83198254C08985282F30E0898112
:10124000882F90E0AC01440F551F440F551F8FE0CD
:1012500090E002C0880F991F4A95E2F782239323FA
:101260002981222F30E0220F331F220F331F02C0AB
:10127000959587952A95E2F78D838885082F10E04C
:101280008D81A82FB0E08F81882F90E0FC013196EE
:101290008E81282F30E08C81882F90E0280F391F15
:1012A0008A81682F70E08B81482F50E0649FC001D5
:1012B000659F900D749F900D1124A901481B590B37
:1012C000CA012A853B85780100E010E0AD01BF012D
:1012D0000E9454158A818F5F8A8389818F5F8983F9
:1012E0008981823008F4A8CF00002B960FB6F894BD
:1012F000DEBF0FBECDBFDF91CF911F910F91FF9049
:10130000EF900895EF92FF920F931F93CF93DF9387
:10131000CDB7DEB72B970FB6F894DEBF0FBECDBFAB
:101320008D836E834F83398728871B870A871982AD
:101330009F81892F880F890F880F8A838A81880F60
:10134000880F8B838A81282F30E08A81882F90E054
:10135000AC01440F551F440F551F8E81682F70E05C
:101360008D81882F90E000E010E00E94C312198266
:101370004FC08981882F90E09C01220F331F220FDC
:10138000331F8FE090E002C0880F991F2A95E2F783
:101390009C0188859985822393232981222F30E01F
:1013A000220F331F220F331F02C0969587952A956F
:1013B000E2F78C838F81082F10E08C81A82FB0E09A
:1013C0008E81E82FF0E08D81282F30E08B81882FEF
:1013D00090E0280F391F8A81682F70E08981482F9B
:1013E00050E0649FC001659F900D749F900D112483
:1013F000A901481B590BCA012A853B85780100E0E9
:1014000010E0AD01BF010E94541589818F5F89836F
:101410008981843008F4ADCF00002B960FB6F89484
:10142000DEBF0FBECDBFDF91CF911F910F91FF9017
:10143000EF9008950F931F93CF93DF9300D0CDB714
:10144000DEB79A83898380910501282F30E080914F
:101450000301869586958695482F50E08091AF01CF
:10146000682F70E08091AE01882F90E0E981FA81C9
:101470008F010E94791380910501882F90E09C01D3
:101480002250310980910301869586958695882F93
:1014900090E0AC01425051098091AF01882F90E05B
:1014A000BC016F5F7F4F8091AE01882F90E0019665
:1014B000E981FA818F010E94791300000F900F904B
:1014C000DF91CF911F910F910895CF93DF9300D0BB
:1014D000CDB7DEB79A83898389819A810E94A91248
:1014E00000000F900F90DF91CF910895CF93DF937D
:1014F000CDB7DEB7E1970FB6F894DEBF0FBECDBF14
:1015000028E0E5E1F1E0CE010196DC0101900D92C9
:101510002A95E1F7CE010196AC0160E070E08AE027
:1015200090E00E9476188BE0EDE1F1E0DE01199683
:1015300001900D928A95E1F7CE010996AC016AE01F
:1015400070E08AE090E00E94761889E0E8E2F1E03D
:10155000DE01549601900D928A95E1F7CE014496F2
:10156000AC0164E170E08AE090E00E9476188AE0C5
:10157000E1E3F1E0DE015D9601900D928A95E1F7DD
:10158000CE014D96AC016EE170E08AE090E00E94E1
:1015900076188BE0EBE3F1E0DE01979601900D9277
:1015A0008A95E1F7CE018796AC0168E270E08AE0A7
:1015B00090E00E9476180000E1960FB6F894DEBF26
:1015C0000FBECDBFDF91CF910895CF93DF93CDB7FD
:1015D000DEB78BE390E020910C01FC01208385E3D2
:1015E00090E020910D01FC0120830000DF91CF915C
:1015F0000895CF93DF9300D0CDB7DEB70E94841E4D
:1016000089830E94841E8A8386E491E00E94F40B01
:101610008A81282F30E08981882F90E0B9010E94CB
:10162000901D0F900F90DF91CF910895CF93DF938E
:1016300000D0CDB7DEB70E94841E89830E94841E2D
:101640008A830E94841E8093A0018A81282F30E023
:101650008981882F90E0B9010E94901D9093A30189
:101660008093A20188E591E00E94F40B00000F90A6
:101670000F90DF91CF910895CF93DF93CDB7DEB771
:101680000E94841E8093B3010E94841E8093B40143
:101690000E94841E8093A0010E94841E8093A10159
:1016A0008AE691E00E94F40B0000DF91CF9108954B
:1016B000CF93DF9300D000D01F92CDB7DEB79B83CE
:1016C0008A836C834D83198219821FC08981882F78
:1016D00090E02FE030E0281B390B81E090E002C061
:1016E000880F991F2A95E2F79C018A819B818223AA
:1016F0009323892B21F081E30E94961E03C080E38F
:101700000E94961E89818F5F898389818031F0F2E2
:101710008D81882319F080E20E94961E8C81882397
:1017200031F08AE00E94961E8DE00E94961E000015
:101730000F900F900F900F900F90DF91CF91089521
:10174000CF93DF931F92CDB7DEB782E290E0FC012A
:10175000108281E290E0FC018081898382E290E046
:101760002FEFFC01208389810F90DF91CF910895A5
:10177000CF93DF931F92CDB7DEB7898382E290E0EB
:101780002FEFFC01208383E290E02981FC0120837C
:1017900000000F90DF91CF910895CF93DF93CDB7E5
:1017A000DEB785E390E0FC018081282F30E08BE3F9
:1017B00090E0FC018081882F90E0B9010E94901D8B
:1017C000DF91CF910895CF93DF9300D0CDB7DEB7EF
:1017D0009A83898389819A810E94841C00000F90DA
:1017E0000F90DF91CF910895EF92FF920F931F9387
:1017F000CF93DF9300D01F92CDB7DEB79B838A8350
:101800008091A901865F8093A9018091A901803A06
:1018100030F01092A90181E090E00E94A912198293
:1018200027C08A819B819C012F5F3F4F3B832A8386
:10183000FC018081482F50E08091A901682F70E061
:101840008981282F30E0C901880F991F880F991FBF
:10185000880F991F821B930BEE24E394F12C00E078
:1018600010E020EF3FE00E94561689818F5F898348
:101870008A819B81FC018081882399F600000F906A
:101880000F900F90DF91CF911F910F91FF90EF90EC
:101890000895CF93DF93CDB7DEB78091AB018F5F13
:1018A0008093AB010000DF91CF910895CF93DF9338
:1018B000CDB7DEB78091AB0181508093AB010000C2
:1018C000DF91CF910895CF93DF931F92CDB7DEB70D
:1018D0000E94C71D898389818E3F11F40E94A7064B
:1018E00089818D3F11F40E940F0689818B3F11F48D
:1018F0000E9479058981873F11F40E94E104898162
:101900008F3D11F40E94560C89818F3E11F40E9484
:10191000490C89818F3711F40E94410789818F3BDF
:1019200011F40E948A079091AC018091AE01981742
:1019300031F49091AD018091AF01981711F00E94A0
:10194000AA0C8091AE018093AC018091AF0180938D
:10195000AD01BECFCF92DF92EF92FF920F931F9314
:10196000CF93DF93CDB7DEB730910501209103010E
:101970009091AA0180910C010F2EFEEBCF2EF3E087
:10198000DF2EF02D0F2EF0EEEF2EFEE0FF2EF02DCD
:10199000032F40E0692F0E94600880910801909118
:1019A000090120910C0140910201309107018C0145
:1019B00060E0832F0E94E40840910501209103011B
:1019C000309105019091AA0180910D010F2EFEEB3F
:1019D000CF2EF3E0DF2EF02D0F2EF0EEEF2EFEE0F7
:1019E000FF2EF02D042F432F692F0E946008809155
:1019F00008019091090120910D014091020150913F
:101A00000501309107018C01652F832F0E94E408A6
:101A1000409105012091030180910501382F330F7A
:101A20009091AA0180910E010F2EFEEBCF2EF3E0D4
:101A3000DF2EF02D0F2EF0EEEF2EFEE0FF2EF02D1C
:101A4000042F432F692F0E94600880910801909114
:101A5000090160910E014091020120910501522F70
:101A6000550F309107018C01262F652F832F0E947F
:101A7000E40880910801909109010E941A0A2091BE
:101A80000801309109018091AB01882F90E06894A2
:101A9000EE24E1F8F12C00E010E0AC0164E670E027
:101AA00080E090E00E9456160E94E50A0000DF9157
:101AB000CF911F910F91FF90EF90DF90CF900895FD
:101AC0000F931F93CF93DF93CDB7DEB72F970FB64A
:101AD000F894DEBF0FBECDBF8DE0ECE7F1E0DE0194
:101AE000139601900D928A95E1F7CE010396AC0111
:101AF0006AE570E080E090E00E9476181A82198210
:101B00001A8219821EC029813A8189819A81B9017C
:101B10000E94151D83E290E0FC01108200910801F3
:101B20001091090189819A810E94B11C282F42E0FD
:101B300064E680E00E94E40889819A8101969A8394
:101B4000898389819A818F3F9105E9F2E4F200004F
:101B50002F960FB6F894DEBF0FBECDBFDF91CF91A9
:101B60001F910F9108950F931F93CF93DF93CDB7DC
:101B7000DEB72F970FB6F894DEBF0FBECDBF8DE056
:101B8000ECE7F1E0DE01139601900D928A95E1F702
:101B9000CE010396AC016AE570E080E090E00E941F
:101BA00076181A8219821A82198221C089819A8133
:101BB0009C01265F3F4F89819A81B9010E94151DC2
:101BC00083E290E0FC01108200910801109109016C
:101BD00089819A810E94B11C282F42E064E680E04E
:101BE0000E94E40889819A8101969A838983898178
:101BF0009A81803F9105D4F200002F960FB6F89499
:101C0000DEBF0FBECDBFDF91CF911F910F91089521
:101C10000F931F93CF93DF93CDB7DEB72A970FB6FD
:101C2000F894DEBF0FBECDBF89E0E9E8F1E0DE0148
:101C3000129601900D928A95E1F7CE010296AC01C1
:101C400060E070E08AE090E00E9476180E94C71D74
:101C5000898380910801909109018C01298142E0DA
:101C600064E180E00E94E408F1CFCF93DF93CDB729
:101C7000DEB72F970FB6F894DEBF0FBECDBF8DE055
:101C8000E2E9F1E0DE01139601900D928A95E1F709
:101C9000CE010396AC016AE570E080E090E00E941E
:101CA00076181A8219821A8219820FC089819A8144
:101CB00060E070E00E94151D83E290E0FC0110825C
:101CC00089819A8101969A83898389819A81019673
:101CD00069F700002F960FB6F894DEBF0FBECDBF98
:101CE000DF91CF910895CF93DF931F92CDB7DEB7E9
:101CF00089838FE290E02981FC01208300008EE23D
:101D000090E0FC0180818823D4F700000F90DF91E0
:101D1000CF910895CF93DF9300D0CDB7DEB79A83EC
:101D2000898385E690E0FC01208185E690E02E7FA6
:101D3000FC01208385E690E0FC01208185E690E0AF
:101D40002B7FFC01208389810E94730E85E690E041
:101D5000FC01208185E690E02460FC0120830000E6
:101D60000F900F90DF91CF910895CF93DF931F9243
:101D7000CDB7DEB7898385E690E0FC01208185E65A
:101D800090E02160FC01208385E690E0FC01208149
:101D900085E690E02B7FFC01208389810E94730EF1
:101DA00085E690E0FC01208185E690E02460FC015E
:101DB000208300000F90DF91CF910895CF93DF93A0
:101DC000CDB7DEB7A3970FB6F894DEBF0FBECDBF79
:101DD0009BA38AA38AA19BA19C012F5F3F4F3BA39A
:101DE0002AA39E838D838D819E81FC0184918F83A4
:101DF0008F818983DFC08AA19BA19C012F5F3F4F08
:101E00003BA32AA39987888788859985FC018491BB
:101E10008A878A85882F90E00E948A0E8AA19BA1DA
:101E20009C012F5F3F4F3BA32AA39C878B878B8509
:101E30009C85FC0184918D878D858A838A81882F7A
:101E400090E0807899279C838B838A818F778A831F
:101E500011C08AA19BA19C012F5F3F4F3BA32AA3E6
:101E60009A8B898B89899A89FC0184918B8B8B89C8
:101E70000E94B50E8A819FEF980F9A83882349F7B5
:101E80008B819C81892B09F495C08AA19BA19C011F
:101E90002F5F3F4F3BA32AA39F878E878E859F8509
:101EA000FC018491888B8889882F90E09C838B83A8
:101EB0008B819C818F3F910521F484EF91E09C837D
:101EC0008B838B819C81CC01A0E0B0E0BC01CD0173
:101ED0000E945020DC01CB018C8B9D8BAE8BBF8B85
:101EE00020E030E04AE755E46C897D898E899F893E
:101EF0000E94DF20DC01CB01888F998FAA8FBB8FD6
:101F000020E030E040E85FE3688D798D8A8D9B8D1D
:101F10000E941C2088232CF481E090E09D8F8C8F00
:101F20003FC020E03FEF4FE757E4688D798D8A8D01
:101F30009B8D0E94DA2018164CF520E030E040E23C
:101F400051E46C897D898E899F890E94DF20DC01A4
:101F5000CB01BC01CD010E942120DC01CB019D8F72
:101F60008C8F0FC080E991E09F8F8E8F8E8D9F8D1B
:101F70000197F1F79F8F8E8F8C8D9D8D01979D8F8F
:101F80008C8F8C8D9D8D892B69F714C0688D798D10
:101F90008A8D9B8D0E942120DC01CB019D8F8C8F2F
:101FA0008C8D9D8D99A388A388A199A10197F1F7A4
:101FB00099A388A389819FEF980F9983882309F0BB
:101FC0001ACF0000A3960FB6F894DEBF0FBECDBFA8
:101FD000DF91CF910895CF93DF9300D0CDB7DEB7D7
:101FE0009A83898385E690E0FC01108289819A8139
:101FF000892B21F089819A810E94DE0E00000F90CA
:102000000F90DF91CF910895CF93DF93CDB7DEB7D7
:102010008CE890E00E94EB0F8FEF8093140180E03A
:1020200090E00E94A9120000DF91CF910895CF9314
:10203000DF931F92CDB7DEB7898383EF90E00E94D4
:10204000EB0F8981813089F48EE291E00E94DE0EEF
:1020500082E090E09093CC018093CB0181E090E00E
:102060009093B7018093B60104C08BE391E00E9486
:10207000DE0E85E591E00E94DE0E8981833039F421
:1020800086E390E00E948A0E80EC0E94B50E898162
:102090008093B50100000F90DF91CF910895CF9309
:1020A000DF93CDB7DEB728970FB6F894DEBF0FBE2B
:1020B000CDBF9A8389837C836B835E834D8338870E
:1020C0002F838AE290E00E948A0E80E00E94B50E83
:1020D00029818091CB019091CC01820F0E94B50E95
:1020E00080E00E94B50E2D818091CB019091CC01B2
:1020F000820F0E94B50E8BE290E00E948A0E80E073
:102100000E94B50E2B818091B6019091B701820F8C
:102110000E94B50E80E00E94B50E2F818091B6011D
:102120009091B701820F0E94B50E8CE290E00E9460
:102130008A0E000028960FB6F894DEBF0FBECDBF02
:10214000DF91CF910895CF93DF9300D0CDB7DEB765
:102150009A83898385E690E0FC01208185E690E002
:102160002160FC01208385E690E0FC01208185E66A
:1021700090E02B7FFC01208389819A81892F992708
:102180000E94730E89810E94730E85E690E0FC0127
:10219000208185E690E02460FC01208300000F9000
:1021A0000F90DF91CF910895CF93DF9300D000D0AF
:1021B00000D0CDB7DEB79A8389837C836B835E833F
:1021C0004D8380911201882F90E029813A81281750
:1021D0003907F0F480911301882F90E02B813C8126
:1021E00028173907A8F48B819C819C012F5F3F4FF2
:1021F00089819A81AC014F5F5F4F6B817C818981BE
:102200009A810E944F108D819E810E94A31001C06F
:10221000000026960FB6F894DEBF0FBECDBFDF914B
:10222000CF9108950F931F93CF93DF93CDB7DEB770
:102230002C970FB6F894DEBF0FBECDBF8F83688793
:1022400049872A871C870B878885282F30E08F8154
:10225000882F90E0A901481B590BCA0199231CF44F
:102260009195819591098A839F818885981710F4AB
:1022700081E001C08FEF8B838A85282F30E089852C
:10228000882F90E0A901481B590BCA0199231CF41F
:1022900091958195910981958C8399858A85981767
:1022A00010F481E001C08FEF8D839A818C81890FBA
:1022B00089838985282F30E08F81882F90E04B8596
:1022C0005C85B9010E94D4108981880F8E839E811C
:1022D0008C81981760F09F8188859817C9F0998143
:1022E0008C81890F89839F818B81890F8F839E8148
:1022F0008A818917F0F299858A85981759F0998112
:102300008A81890F898399858D81890F8987D1CFAA
:10231000000001C0000000002C960FB6F894DEBF4C
:102320000FBECDBFDF91CF911F910F910895CF9335
:10233000DF9300D000D000D01F92CDB7DEB78B83E3
:102340006C834D833F832E838E819F81892F9927B4
:1023500089838E818A83809112019B81981708F06E
:102360005DC0809113019C81981708F057C08C8143
:10237000282F30E08D81882F90E0820F931F9C01E1
:102380002150310980911301882F90E028173907D7
:102390003CF0909113018C81292F281B822F8D8373
:1023A0008C81282F30E08D81882F90E0820F931F41
:1023B00001979C018B81482F50E08C81682F70E041
:1023C0008B81882F90E00E944F1085E690E0FC0101
:1023D000208185E690E02160FC01208385E690E085
:1023E000FC01208185E690E02B7FFC01208306C064
:1023F00089810E94730E8A810E94730E8D819FEFE6
:10240000980F9D838823A1F785E690E0FC01208149
:1024100085E690E02460FC01208301C0000027963F
:102420000FB6F894DEBF0FBECDBFDF91CF910895F8
:10243000CF93DF93CDB7DEB72A970FB6F894DEBF00
:102440000FBECDBF9C838B837E836D8358874F8364
:102450003A87298789859A85892F9927898389854C
:102460008A8380911201882F90E02B813C8128176C
:1024700039070CF064C080911301882F90E02D8102
:102480003E81281739070CF05AC02B813C818F817F
:102490009885820F931F9C01215031098091120170
:1024A000882F90E02817390764F080911201282FB7
:1024B00030E08B819C81A901481B590BCA01988788
:1024C0008F834D815E812B813C818F819885820F26
:1024D000931F0197FC016D817E818B819C819A0104
:1024E000AF010E944F1085E690E0FC01208185E657
:1024F00090E02160FC01208385E690E0FC012081D2
:1025000085E690E02B7FFC01208306C089810E9434
:10251000730E8A810E94730E8F8198859C012150D1
:10252000310938872F83892B89F785E690E0FC01F4
:10253000208185E690E02460FC01208301C000003A
:102540002A960FB6F894DEBF0FBECDBFDF91CF91B4
:1025500008950F931F93CF93DF9300D0CDB7DEB7CD
:102560009A83898389819A818C0120EA40E860E01E
:1025700080E00E94C31200000F900F90DF91CF9176
:102580001F910F9108950F931F93CF93DF93CDB7B2
:10259000DEB72A970FB6F894DEBF0FBECDBF8D838E
:1025A0006E834F8328871A87098789859A85892FA3
:1025B00099278B8389858C83809112019D8198173F
:1025C00008F08BC0809113019E81981708F085C098
:1025D0008D81282F30E08F81882F90E0820F931F0C
:1025E0009C012150310980911201882F90E0281719
:1025F00039073CF0909112018D81292F281B822FE1
:102600008F838E81282F30E08885882F90E0820F7D
:10261000931F9C012150310980911301882F90E074
:10262000281739073CF0909113018E81E92FE81BA0
:102630008E2F88878E81282F30E08885882F90E024
:10264000820F931F0197FC018D81282F30E08F812D
:10265000882F90E0820F931F0197AC018E81682F25
:1026600070E08D81882F90E09F010E944F1085E6D9
:1026700090E0FC01208185E690E02160FC01208350
:1026800085E690E0FC01208185E690E02B7FFC014F
:10269000208319821A828885898312C08F818A8358
:1026A00009C08B810E94730E8C810E94730E8A81F7
:1026B00081508A838A818823A1F789818150898307
:1026C0008981882359F785E690E0FC01208185E621
:1026D00090E02460FC01208301C000002A960FB620
:1026E000F894DEBF0FBECDBFDF91CF911F910F9148
:1026F00008950F931F93CF93DF9300D000D000D0A5
:10270000CDB7DEB789836A834B832C831E830D8309
:102710008B81482F50E08A81682F70E08981882F53
:1027200090E02D813E810E9418128B81482F50E04D
:102730008A81282F30E08C81882F90E0B901680FC2
:10274000791F8981882F90E02D813E810E94181287
:102750008D819E819C014C816A8189810E949711A3
:1027600099818B81592F580F8D819E819C014C81BD
:102770006A81852F0E949711000026960FB6F89463
:10278000DEBF0FBECDBFDF91CF911F910F91089596
:10279000CF93DF9300D01F92CDB7DEB789836A83D2
:1027A0004B838B81882F90E0982F88279C012227CC
:1027B000387F8A81882F90E0880F991F880F991F92
:1027C000880F991F807E9770282B392B89818695D9
:1027D00086958695882F90E0822B932B0F900F90F3
:1027E0000F90DF91CF910895CF93DF9300D0CDB7B5
:1027F000DEB79A83898389819A819C01322F2227AF
:10280000330F330F330F89819A81807E9770282B85
:10281000392B89819A81892F992786958695869566
:10282000822B932B0F900F90DF91CF9108950F93F0
:10283000CF93DF93CDB7DEB72C970FB6F894DEBFFA
:102840000FBECDBF8F8368875A8749872B870C8738
:102850001A8219828B85882F90E09E838D838B85C9
:10286000482F50E08C85882F90E09C012150310941
:10287000429FC001439F900D529F900D11249C8355
:102880008B83809112019F81981708F000C1888581
:10289000282F30E08C85882F90E0A901481B590B28
:1028A000CA019C012F5F3F4F80911301882F90E058
:1028B000281739070CF0EBC08F81282F30E08B856B
:1028C000882F90E0820F931F181619060CF0DFC0B6
:1028D000809112019B85891708F4DBC08091130158
:1028E0009C85891708F4D5C08F81282F30E08B850F
:1028F000882F90E0820F931F9C0121503109809115
:102900001201882F90E028173907CCF08F81282FEB
:1029100030E08B85882F90E0280F391F80911201BD
:10292000882F90E0B901681B790BCB019A838983CA
:10293000909112018F81792F781B872F8B87888543
:10294000282F30E08C85882F90E0F901E81BF90BE7
:10295000CF01019699230CF58C85282F30E08885CE
:10296000882F90E0A901481B590BCA01AC014150C6
:1029700051092D813E81429FC001439F900D529F7E
:10298000900D11242B813C81B901681B790BCB017F
:102990009C838B8388858F5F8C87809113019885BA
:1029A000981760F0909113018885981B8C85890F8A
:1029B00081508C8780911301815088878885482FAA
:1029C00050E08F81282F30E08B85882F90E0820F98
:1029D000931F0197FC018885282F30E08C85882F74
:1029E00090E0B901681B790BCB010196BC018F8186
:1029F000882F90E09A01AF010E944F10188641C0C5
:102A00001F8224C08B819C81880F991F29853A855C
:102A1000820F931FFC0180819181892F99270E9449
:102A2000B50E8B819C81880F991F29853A85820F6D
:102A3000931FFC01808191810E94B50E8B819C8146
:102A400001969C838B838F818F5F8F839F818B8582
:102A50009817C0F22B813C8189819A81820F931F44
:102A60009C838B838D819E81880F991F2B813C8154
:102A7000A901481B590BCA019C838B8388858F5FF2
:102A8000888798858C85981708F4BACF03C0000012
:102A900001C000002C960FB6F894DEBF0FBECDBF6C
:102AA000DF91CF910F910895EF920F931F93CF93E2
:102AB000DF93CDB7DEB760970FB6F894DEBF0FBED9
:102AC000CDBF89876A874B873D872C871F870E87F5
:102AD000E88A80E891E09D838C831A821B82809132
:102AE00012019985981708F0D4C0809113019A8536
:102AF000981708F0CEC08985482F50E08889282F84
:102B000030E0C901880F991F880F991F820F931F0A
:102B1000840F951F019799230CF4BBC08A85282F39
:102B200030E08889882F90E0880F991F880F991FBF
:102B3000880F991F820F931F019799230CF4A9C046
:102B40001A82A2C08A81853011F419821DC08B853A
:102B5000282F30E0C901880F991F880F991F820F15
:102B6000931F9C018A81882F90E0820F931F2C81F4
:102B70003D81820F931F9F838E838E819F81FC01F5
:102B800084918887888589831B8277C08981882F73
:102B900090E081709927892B91F188898130B1F477
:102BA0004C855D858A85282F30E08B81882F90E0C9
:102BB000820F931FBC018985282F30E08A81882FDE
:102BC00090E0820F931F0E94D41051C08C859D8588
:102BD0003B812889329F302D11242A85532F520F93
:102BE0003A812889329F302D11242985320F8C019A
:102BF00028894889652F832F0E94C31238C02E85EB
:102C00003F858C859D852817390789F18889813012
:102C1000B1F44E855F858A85282F30E08B81882F1F
:102C200090E0820F931FBC018985282F30E08A81B4
:102C3000882F90E0820F931F0E94D41018C08E85B9
:102C40009F853B812889329F302D11242A85532F5F
:102C5000520F3A812889329F302D11242985320F55
:102C60008C0128894889652F832F0E94C31289818E
:102C7000869589838B818F5F8B838B81883008F465
:102C800085CF8A818F5F8A838A81863008F45ACF04
:102C900001C0000060960FB6F894DEBF0FBECDBF36
:102CA000DF91CF911F910F91EF900895EF920F93C5
:102CB0001F93CF93DF93CDB7DEB760970FB6F8942D
:102CC000DEBF0FBECDBF89876A874B873D872C87C4
:102CD0001F870E87E88A80ED91E09D838C831A829E
:102CE0001B82809112019985981708F0D4C08091B9
:102CF00013019A85981708F0CEC08985482F50E0B7
:102D00008889282F30E0C901880F991F880F991FE3
:102D1000820F931F840F951F019799230CF4BBC05A
:102D20008A85282F30E08889882F90E0880F991FA6
:102D3000880F991F880F991F820F931F019799235E
:102D40000CF4A9C01A82A2C08A81853011F41982BC
:102D50001DC08B85282F30E0C901880F991F880F6F
:102D6000991F820F931F9C018A81882F90E0820F08
:102D7000931F2C813D81820F931F9F838E838E81B1
:102D80009F81FC0184918887888589831B8277C015
:102D90008981882F90E081709927892B91F188890A
:102DA0008130B1F44C855D858A85282F30E08B8198
:102DB000882F90E0820F931FBC018985282F30E077
:102DC0008A81882F90E0820F931F0E94D41051C0F7
:102DD0008C859D853B812889329F302D11242A8541
:102DE000532F520F3A812889329F302D1124298583
:102DF000320F8C0128894889652F832F0E94C312C6
:102E000038C02E853F858C859D852817390789F127
:102E100088898130B1F44E855F858A85282F30E01E
:102E20008B81882F90E0820F931FBC018985282F0A
:102E300030E08A81882F90E0820F931F0E94D41087
:102E400018C08E859F853B812889329F302D1124A3
:102E50002A85532F520F3A812889329F302D112411
:102E60002985320F8C0128894889652F832F0E947C
:102E7000C3128981869589838B818F5F8B838B8138
:102E8000883008F485CF8A818F5F8A838A81863073
:102E900008F45ACF01C0000060960FB6F894DEBF68
:102EA0000FBECDBFDF91CF911F910F91EF9008958D
:102EB000EF920F931F93CF93DF93CDB7DEB72D978C
:102EC0000FB6F894DEBF0FBECDBF8E836F834887E9
:102ED0003A8729871C870B87ED868E81482F50E023
:102EE0008D85282F30E0C901880F991F880F991F01
:102EF000820F931F840F951F9C01215031098091EF
:102F00001201882F90E0281739070CF0E2C08F815A
:102F1000282F30E08D85882F90E0880F991F880F2B
:102F2000991F880F991F820F931F9C01215031090F
:102F300080911301882F90E0281739070CF0C9C041
:102F40008E81482F50E08D85282F30E0C901880FF1
:102F5000991F880F991F820F931F840F951F019748
:102F600099230CF4B6C08F81282F30E08D85882FEF
:102F700090E0880F991F880F991F880F991F820F63
:102F8000931F019799230CF4A4C08F81282F30E060
:102F90008D85882F90E0880F991F880F991F880FC3
:102FA000991F820F931F0197FC018E81482F50E0DB
:102FB0008D85282F30E0C901880F991F820F931F3C
:102FC000880F991F840F951F0197AC018F81682F7F
:102FD00070E08E81882F90E09F010E944F1081E069
:102FE00089831B8271C01C825EC01A8242C08885A0
:102FF000282F30E0C901880F991F880F991F280FCB
:10300000391F8A81082E000C990B820F931F805361
:103010009E4FFC019081898189238823A1F01D8224
:1030200007C089859A850E94A3108D818F5F8D834B
:103030008D81282F880F330B8D85882F90E02817DE
:1030400039077CF313C01D8207C08B859C850E94C5
:10305000A3108D818F5F8D838D81282F880F330B77
:103060008D85882F90E0281739077CF38A818F5F40
:103070008A838A8185300CF4BACF1D8207C08B8584
:103080009C850E94A3108D818F5F8D838D81282F59
:10309000880F330B8D85882F90E0281739077CF334
:1030A0008C818F5F8C838C81282F880F330B8D85CB
:1030B000882F90E0281739070CF497CF8981880F63
:1030C00089838B818F5F8B838B8188300CF48BCFCE
:1030D00001C000002D960FB6F894DEBF0FBECDBF25
:1030E000DF91CF911F910F91EF900895EF920F9381
:1030F0001F93CF93DF93CDB7DEB763970FB6F894E6
:10310000DEBF0FBECDBF888B698B5B8B4A8B19826C
:103110001CC08A899B899C012F5F3F4F3B8B2A8B68
:10312000FC0140818981982F990F990F990F888907
:10313000890FEE24E39400E010E020EF3FE069897E
:103140000E94561689818F5F89838A899B89FC0139
:1031500080818823F1F680E090E0A8E4B3E48A83DC
:103160009B83AC83BD8320E030E04AE755E46A816D
:103170007B818C819D810E94DF20DC01CB018E83CD
:103180009F83A887B98720E030E040E85FE36E8145
:103190007F81888599850E941C2088232CF481E0FA
:1031A00090E09B878A873FC020E03FEF4FE757E4DE
:1031B0006E817F81888599850E94DA2018164CF5EA
:1031C00020E030E040E251E46A817B818C819D8186
:1031D0000E94DF20DC01CB01BC01CD010E94212037
:1031E000DC01CB019B878A870FC080E991E09D8736
:1031F0008C878C859D850197F1F79D878C878A85C3
:103200009B8501979B878A878A859B85892B69F790
:1032100014C06E817F81888599850E942120DC0100
:10322000CB019B878A878A859B859F878E878E8522
:103230009F850197F1F79F878E87000063960FB6F1
:10324000F894DEBF0FBECDBFDF91CF911F910F91DC
:10325000EF900895CF93DF9300D0CDB7DEB79A8378
:10326000898389819A810A9760F189819A819C0179
:10327000ADECBCEC0E94F91F9695879596958795C5
:10328000969587950E942A1949815A819A01ADEC39
:10329000BCEC0E94F91F9C01369527953695279521
:1032A00036952795C901880F991F880F991F820F9E
:1032B000931F880F991F9A01281B390BC9019A8304
:1032C000898329818091C5019091C601205D875431
:1032D0009E4FFC0120838091C5019091C6010B9700
:1032E00048F48091C5019091C60101969093C60162
:1032F0008093C50100000F900F90DF91CF9108954A
:10330000CF93DF9300D000D0CDB7DEB79A83898307
:103310007C836B8389819A81459758F48B819C814A
:10332000409738F489818093B1018B818093B201F9
:1033300001C000000F900F900F900F90DF91CF9180
:103340000895CF93DF931F92CDB7DEB7898386E3CD
:1033500090E00E948A0E8981882F90E083709927DF
:103360009093CA018093C9018091C9019091CA01CB
:1033700081309105D9F08130910530F0823091058E
:1033800039F10397B9F148C08091B501833021F438
:1033900080EC0E94B50E03C088EC0E94B50E80E858
:1033A0008093120180EA8093130136C08091B501A9
:1033B000833021F480EA0E94B50E03C088EA0E949F
:1033C000B50E80EA8093120180E88093130124C037
:1033D0008091B501833021F480E00E94B50E03C0D6
:1033E00088E00E94B50E80E88093120180EA809305
:1033F000130112C08091B501833021F480E60E9450
:10340000B50E03C088E60E94B50E80EA80931201D3
:1034100080E880931301000000000F90DF91CF91AE
:103420000895CF93DF9300D0CDB7DEB79A83898319
:1034300089819A81892B29F081E290E00E948A0E8D
:1034400004C080E290E00E948A0E00000F900F906E
:10345000DF91CF9108950F931F93CF93DF9300D007
:10346000CDB7DEB789836A8344EE64EE84EE0E94B2
:10347000C8138C0120E840E860E280E00E94C3129B
:103480009A818981891770F48A818093C701898123
:103490008093B8019A818981292F281B822F8093DC
:1034A000C8010DC089818093C7018A818093B801CA
:1034B0009A818981292F281B822F8093C80110921D
:1034C000CD0100000F900F90DF91CF911F910F91D0
:1034D0000895CF93DF9300D0CDB7DEB78A838A817A
:1034E000282F30E08091B801082E000C990B281786
:1034F00039071CF48091B8018A838A81282F30E033
:103500008091C701082E000C990B821793071CF4B9
:103510008091C7018A838091C701282F880F330BC0
:103520008A81882F90E0281B390BC9019695982F26
:10353000882797958795821B930B2091C801022EAF
:10354000000C330BB9010E94E51FCB01805E89831B
:103550008981803210F480E289838981803A10F079
:103560008FE989838981282F30E08091CD01082E51
:10357000000C990B40E058EFB9010E94D4108981EA
:10358000282F30E08091CD01082E000C990B019678
:1035900040E058EFB9010E94D4108981882F90E053
:1035A00001969C018091CD01082E000C990B40E002
:1035B00058EFB9010E94D4108981882F90E00196BC
:1035C0009C018091CD01082E000C990B019640E0E2
:1035D00058EFB9010E94D41000000F900F90DF91B6
:1035E000CF910895CF93DF93CDB7DEB78091CD0112
:1035F0008F3719F41092CD0105C08091CD018F5FF6
:103600008093CD010000DF91CF910895CF93DF9398
:10361000CDB7DEB78091CD018F3719F41092CD016F
:1036200005C08091CD018F5F8093CD0144EE64EEA3
:1036300084EE0E94C8132091CD01522F9C0140E8D6
:1036400060E2852F0E9497110000DF91CF910895CD
:10365000CF93DF9300D0CDB7DEB79A83898389817A
:103660008093140100000F900F90DF91CF91089587
:10367000CF93DF93CDB7DEB782E00E94171080E0D2
:1036800090E00E94A9120000DF91CF910895CF939E
:10369000DF93CDB7DEB780E090E00E94A912000072
:1036A000DF91CF910895CF93DF93CDB7DEB70E941E
:1036B000471B0000DF91CF910895CF93DF93CDB7E3
:1036C000DEB70E94381B0000DF91CF910895CF93A1
:1036D000DF9300D0CDB7DEB79A83898389819A8141
:1036E0000E94281B00000F900F90DF91CF9108954A
:1036F000CF93DF93CDB7DEB780E00E94831B00003D
:10370000DF91CF910895CF93DF9300D01F92CDB773
:10371000DEB78B831A8219821A8219820AC08981C4
:103720009A816B810E94151D89819A8101969A83E5
:10373000898389819A81019691F700000F900F90FB
:103740000F90DF91CF910895CF93DF9300D01F9218
:10375000CDB7DEB71A8219821B821A82198210C075
:1037600089819A81992796958795282F89819A81B1
:10377000622F0E94151D89819A8101969A838983FF
:1037800089819A810A9760F300000F900F900F9043
:10379000DF91CF910895CF93DF9300D000D000D078
:1037A000CDB7DEB79C838B837E836D838B819C81B9
:1037B0009A8389832D813E818B819C818217930717
:1037C00090F58B819C819A83898326C081E60E9433
:1037D000961E80E20E94961E89819A81892F9927E0
:1037E00060E00E94241E898160E00E94241E80E225
:1037F0000E94961E84E60E94961E80E20E94961EFB
:1038000089819A810E94B11C61E00E94241E8981F5
:103810009A8101969A83898329813A818D819E813B
:103820002817390798F2000026960FB6F894DEBFE5
:103830000FBECDBFDF91CF910895CF93DF9300D01E
:1038400000D000D01F92CDB7DEB79D838C837F83DD
:103850006E831A8219828C819D819A8389831AC012
:1038600089819A810E94B11C8B8300008BE290E0D9
:10387000FC018081882F90E080729927892BB1F319
:103880008CE290E02B81FC01208389819A81019652
:103890009A83898329813A818E819F8128173907EC
:1038A000F8F2000027960FB6F894DEBF0FBECDBF2A
:1038B000DF91CF910895CF93DF9300D000D0CDB7A3
:1038C000DEB79C838B831A8219821A8219820DC0FB
:1038D0000E94841E282F89819A81622F0E94151DC3
:1038E00089819A8101969A83898329813A818B8182
:1038F0009C812817390760F300000F900F900F90FC
:103900000F90DF91CF910895CF93DF9300D000D037
:10391000CDB7DEB79C838B8319821A828B819C8101
:103920008F3F910509F020F41A828B81898307C0AB
:103930008B819C81892F99278A838B8189838BE353
:1039400090E02981FC01208385E390E02A81FC013D
:10395000208300000F900F900F900F90DF91CF9178
:103960000895CF93DF9300D01F92CDB7DEB79B832E
:103970008A83198282E290E0FC01108282E690E064
:10398000FC01208182E690E02460FC01208383E238
:1039900090E0FC0110828A819B810E94841C82E657
:1039A00090E0FC01208182E690E02160FC01208310
:1039B00082E690E0FC01208182E690E02260FC013A
:1039C000208382E690E0FC01208182E690E02B7F5C
:1039D000FC01208382E690E0FC01208182E690E0F9
:1039E0002D7FFC01208381E290E0FC0180818983AE
:1039F00083E290E0FC01108282E690E0FC012081ED
:103A000082E690E02260FC01208382E690E0FC01E7
:103A1000208182E690E02460FC01208389810F9060
:103A20000F900F90DF91CF910895CF93DF9300D047
:103A30001F92CDB7DEB79A8389836B8382E290E0D1
:103A40002FEFFC01208382E690E0FC01208182E6DA
:103A500090E02460FC01208382E690E0FC0120815C
:103A600082E690E02160FC01208382E690E0FC0188
:103A7000208182E690E02260FC01208389819A8186
:103A80000E94841C82E690E0FC01208182E690E0A6
:103A90002B7FFC01208383E290E02B81FC012083BB
:103AA00082E690E0FC01208182E690E02E7FFC011E
:103AB000208382E690E0FC01208182E690E0216094
:103AC000FC01208300000F900F900F90DF91CF91A9
:103AD0000895CF93DF9300D0CDB7DEB79A83898363
:103AE00089819A818F3F910509F028F4898180931B
:103AF000B3011092B40189819A818F3F910551F0F1
:103B000048F089818093B30189819A81892F99270F
:103B10008093B40100000F900F90DF91CF91089532
:103B2000CF93DF9300D000D01F92CDB7DEB78C8348
:103B30006D838C8189838D81882F90E0982F8827D1
:103B40009B838A838981282F30E08A819B81822B05
:103B5000932B0F900F900F900F900F90DF91CF91BC
:103B60000895CF93DF93CDB7DEB781E390E02FEFD9
:103B7000FC01208381E390E0FC01208181E390E05F
:103B80002B7FFC0120830000DF91CF910895CF931C
:103B9000DF9300D01F92CDB7DEB719821A828EE173
:103BA0008B8382E390E0FC01208182E390E02E7F12
:103BB000FC01208380E390E0FC018081882F90E06D
:103BC0008470992721E0892B09F420E029831A8247
:103BD00028C082E390E0FC01208182E390E0226033
:103BE000FC0120838981880F898380E390E0FC01B8
:103BF0008081882F90E08470992721E0892B09F437
:103C000020E0922F8981890F898382E390E0FC0173
:103C1000208182E390E02D7FFC0120838A818F5FE9
:103C20008A838A818730A8F282E390E0FC012081B8
:103C300082E390E02160FC01208389810F900F9046
:103C40000F90DF91CF910895CF93DF9300D01F9213
:103C5000CDB7DEB78A836B831982198221C08A812E
:103C6000882F90E02981222F30E047E050E0BA0110
:103C7000621B730B9B0102C0959587952A95E2F70D
:103C800081709927892B29F081E390E00E94961E8C
:103C900004C080E390E00E94961E89818F5F898333
:103CA00089818830E0F28B81882341F08AE090E0BE
:103CB0000E94961E8DE090E00E94961E00000F90DC
:103CC0000F900F90DF91CF910895CF93DF93CDB7F1
:103CD000DEB780E990E0FC01108289E290E02FEFEE
:103CE000FC0120838AE290E028E1FC0120838BE242
:103CF00090E0FC0120818BE290E02260FC012083B7
:103D00000000DF91CF910895CF93DF93CDB7DEB759
:103D100000008BE290E0FC0180818823D4F78CE2E4
:103D200090E0FC018081DF91CF910895CF93DF93E4
:103D30001F92CDB7DEB7898300008BE290E0FC01D3
:103D40008081882F90E080729927892BB1F38CE2D3
:103D500090E02981FC01208300000F90DF91CF913A
:103D60000895CF93DF9300D0CDB7DEB78A83198251
:103D700019821FC08A81882F90E02981222F30E08C
:103D800047E050E0BA01621B730B9B0102C095959E
:103D900087952A95E2F781709927892B21F081E395
:103DA0000E94961E03C080E30E94961E89818F5F49
:103DB000898389818830F0F200000F900F90DF91A5
:103DC000CF910895CF93DF9300D01F92CDB7DEB788
:103DD0009B838A83198219821FC08981882F90E072
:103DE0002FE030E0281B390B81E090E002C0880F03
:103DF000991F2A95E2F79C018A819B818223932354
:103E0000892B21F081E30E94961E03C080E30E946B
:103E1000961E89818F5F898389818031F0F200004D
:103E20000F900F900F90DF91CF910895CF93DF9374
:103E300000D000D0CDB7DEB79C838B831A82198265
:103E40001DC089819A819C012F5F3F4F3A8329834E
:103E50009C018B819C81280F391F8CE290E0F90135
:103E60002081FC01208300008BE290E0FC01808136
:103E7000882F90E080729927892BB1F389819A81EC
:103E80002B813C81820F931FFC0180818823C9F61E
:103E900000008BE290E0FC018081882F90E080722E
:103EA0009927892BB1F38CE290E0FC01108200008D
:103EB0000F900F900F900F90DF91CF910895CF93B7
:103EC000DF9300D0CDB7DEB79A8389830BC0898199
:103ED0009A819C012F5F3F4F3A832983FC018081A7
:103EE0000E94961E89819A81FC018081882379F73E
:103EF00000000F900F90DF91CF910895CF93DF9343
:103F000000D000D01F92CDB7DEB79C838B836D832A
:103F100019828D818823F1F480E033C000008BE2A8
:103F200090E0FC0180818823D4F78CE290E0FC01D2
:103F300080818A838A818823C1F08981882F90E0DB
:103F40002B813C81820F931F2A81FC012083898170
:103F50008F5F89838981282F30E08D81882F90E0C1
:103F6000019728173907D4F201C000008981882FF2
:103F700090E02B813C81820F931FFC01108289818C
:103F80008F5F0F900F900F900F900F90DF91CF9158
:103F90000895CF93DF931F92CDB7DEB70E94841EA2
:103FA000898389810E94B11E00000F90DF91CF911B
:103FB0000895991B79E004C0991F961708F0961B85
:103FC000881F7A95C9F78095089597FB072E16F4F8
:103FD000009407D077FD09D00E94082007FC05D087
:103FE0003EF4909581959F4F0895709561957F4F10
:103FF0000895A29FB001B39FC001A39F700D811DC2
:104000001124911DB29F700D811D1124911D0895E1
:10401000AA1BBB1B51E107C0AA1FBB1FA617B707EE
:1040200010F0A61BB70B881F991F5A95A9F780950A
:104030009095BC01CD0108950E948D2008F481E087
:1040400008950E94B92088F09F5798F0B92F9927BA
:10405000B751B0F0E1F0660F771F881F991F1AF073
:10406000BA95C9F714C0B13091F00E94D320B1E0E5
:1040700008950C94D320672F782F8827B85F39F0E4
:10408000B93FCCF3869577956795B395D9F73EF40C
:1040900090958095709561957F4F8F4F9F4F0895B4
:1040A000E89409C097FB3EF49095809570956195D2
:1040B0007F4F8F4F9F4F9923A9F0F92F96E9BB2788
:1040C0009395F695879577956795B795F111F8CF04
:1040D000FAF4BB0F11F460FF1BC06F5F7F4F8F4F6F
:1040E0009F4F16C0882311F096E911C0772321F065
:1040F0009EE8872F762F05C0662371F096E8862FFD
:1041000070E060E02AF09A95660F771F881FDAF753
:10411000880F9695879597F90895990F0008550F80
:10412000AA0BE0E8FEEF16161706E807F907C0F03D
:1041300012161306E407F50798F0621B730B840B45
:10414000950B39F40A2661F0232B242B252B21F41F
:1041500008950A2609F4A140A6958FEF811D811DBF
:10416000089557FD9058440F551F59F05F3F71F067
:104170004795880F97FB991F61F09F3F79F08795CE
:104180000895121613061406551FF2CF4695F1DF57
:1041900008C0161617061806991FF1CF86957105E7
:1041A000610508940895E894BB2766277727CB011B
:1041B00097F908950E948D2008F48FEF08950E94CA
:1041C000F2200C9463210E94552138F00E945C215A
:1041D00020F0952311F00C944C210C9452211124C1
:1041E0000C94D4200E94B12070F3959FC1F3950FD9
:1041F00050E0551F629FF001729FBB27F00DB11D6B
:10420000639FAA27F00DB11DAA1F649F6627B00DFA
:10421000A11D661F829F2227B00DA11D621F739FE3
:10422000B00DA11D621F839FA00D611D221F749FF1
:104230003327A00D611D231F849F600D211D822F38
:10424000762F6A2F11249F5750409AF0F1F088235F
:104250004AF0EE0FFF1FBB1F661F771F881F91508C
:104260005040A9F79E3F510580F00C944C210C94CE
:10427000D4205F3FE4F3983ED4F386957795679515
:10428000B795F795E7959F5FC1F7FE2B880F911DB6
:104290009695879597F9089597F99F6780E870E05C
:1042A00060E008959FEF80EC089500240A941616AC
:1042B000170618060906089500240A941216130614
:1042C000140605060895092E0394000C11F48823A2
:1042D00052F0BB0F40F4BF2B11F460FF04C06F5FBE
:0C42E0007F4F8F4F9F4F0895F894FFCF41
:1042EC00010101640C0A0A64F00F01070F0F0FFFA4
:1042FC00FFFF80A0FF494F207465737400777269CB
:10430C007465205352414D0074696E792063707549
:10431C000077616C6B205352414D0065726173657F
:10432C00205352414D0032206279746573207265BE
:10433C006365697665642E00332062797465732039
:10434C0072656365697665642E00342062797465E4
:10435C00732072656365697665642E0054657374A9
:10436C00696E67205352414D0054696E7920435059
:10437C00550045726173696E67205352414D0000C0
:00000001FF
